:020000040000FA
:1000000008080020350100004701000049010000F8
:1000100000000000000000000000000000000000E0
:100020000000000000000000000000004B01000084
:1000300000000000000000004D0100004F01000022
:100040005101000051010000510100005101000068
:1000500051010000000000005101000051010000AA
:100060005101000051010000510100005101000048
:100070005101000051010000510100005101000038
:100080005101000051010000510100005101000028
:100090005101000051010000510100005101000018
:1000A00051010000510100000000000000000000AC
:1000B0000000000000000000000000000000000040
:1000C0000348854600F04CF800480047F102000064
:1000D00008080020401E00BF00BF00BF00BF00BFD7
:1000E00000BF00BF00BF00BF00BF00BF00BFF1D115
:1000F00070470000401E00BF00BF00BF00BF00BF30
:1001000000BF00BF00BF00BF00BF00BF00BFF1D1F4
:1001100070470000401E00BF00BF00BF00BF00BF0F
:1001200000BF00BF00BF00BF00BF00BF00BFF1D1D4
:10013000704700000748026803210A43026006482E
:10014000804706480047FEE7FEE7FEE7FEE7FEE7DA
:10015000FEE700002405004001020000C10000008D
:10016000064C0125064E05E02046E36807C82B43F0
:1001700098471034B442F7D3FFF7A6FF00080000F9
:100180001008000008B501226946FF2000F017F8AA
:1001900068460078552801D1002008BD5521FF2070
:1001A00000F020F801226946FF2000F008F86846B8
:1001B0000078552801D10020EFE70120EDE7F7B5E1
:1001C0000D461646002301226946A02000F096FA4B
:1001D0000446012332462946A12000F08FFA04404C
:1001E0002046FEBD38B504460D466846047045708D
:1001F000012302226946A02000F080FA38BD0000E9
:1002000010B500F043F8002805D0074807494860BA
:10021000C8130749886100F01FF8002802D00120A8
:100220000449886010BD0000DFFF07C000050040E2
:10023000006C00400006004002E008C8121F08C120
:10024000002AFAD170477047002001E001C1121F57
:10025000002AFBD1704700000B48008CC0B2012877
:1002600010D10948808C0007000F0BD10648806A26
:10027000F0210840402805D10348C06A084201D156
:10028000012070470020FCE7C00F00F01748008CE9
:10029000C0B2012827D11548808C0007000F22D159
:1002A0001248806AF021084205D11048C06A08420D
:1002B00001D1012070470D48806AF02108401028C4
:1002C00005D10A48C06A084201D10120F2E7074877
:1002D000806AF0210840302805D10448C06A0842ED
:1002E00001D10120E6E70020E4E70000C00F00F0A4
:1002F0001CB500200B230A2209210090082000F0E1
:1003000093F800F03DF9122000F06AF8132000F095
:1003100067F80321102000F04FF80321112000F0AE
:100320004BF8FFF72FFF002803D1122000F074F8DC
:1003300002E0132000F070F82DE0642000F02EF8A9
:10034000102000F05FF800280BD1012201A9FE2047
:10035000FFF735FF6846007900F09CF8642000F054
:100360001DF8112000F04EF8002814D101220A498E
:10037000FE20FFF724FF0520FFF7ACFE06480078BB
:10038000401CC0B2044A10700146FE20FFF72AFF4D
:10039000642000F003F8D0E70000002001B505E07C
:1003A0000098401E00900348FFF7B4FE0098002814
:1003B000F6D108BDE703000010B58A0005231B072E
:1003C000072424021B1984001A5110BD10B58A009D
:1003D00005231B07072424021B1984001A5110BD92
:1003E00001210522120707231B02D2188300D150D6
:1003F000704701210522120707231B02D218830030
:10040000D1507047014603480069C840C007C00F7B
:10041000704700000005005001218140014A9160B1
:100420007047000000050050F8B507460C46154619
:100430001E462046FFF7DDFF00213046FFF7C6FFCE
:100440001048C4604661069800280DD03846FFF772
:10045000D0FF00212846FFF7B9FF0A4805618760F1
:10046000012008494031C862074806494862042013
:100470000860012005498860086000200449886000
:10048000F8BD00000025004000509D000020004005
:10049000002100400549C86100BF0549C96901291B
:1004A000FBD10021024AD1617047000000250040C5
:1004B00000210040F8B52E48056800202C4908604E
:1004C000080507210902401846682A48052109073E
:1004D00007221202891848602748006800902548C2
:1004E0002549086000BF01202449886000BF00BF83
:1004F0000220886000BF0420FFF7FCFD1F48006950
:10050000C007C00F06D01D4800698007C00F01D08A
:1005100001241FE00024122716E000BF0220174923
:10052000C86000BF0420FFF7E5FD00BF02201349AB
:10053000886000BF0420FFF7DDFD10480069C00798
:10054000C00F01D0012403E038467F1E0028E4D10B
:1005500000BF00BF052000070721090240184660C0
:10056000054900980860024805602046F8BD000073
:10057000004500400D060000000700500005005037
:1005800010B514480521090707221202891848608E
:1005900011490860002011498860C8610120104994
:1005A00088600020C8603320C00448620B4838309F
:1005B0000C4908610948E4380B4951221201891895
:1005C0004860012007498860052005490860FFF759
:1005D00071FF10BD0C0600000007005000410040F4
:1005E0000045004000F5014000F00140F8B5054627
:1005F0000C4617463B4E002C01D10020F8BD012CC3
:1006000006D139483949512212018918486006E05B
:1006100035480830354951221201891848600120B7
:100620003349486000203049EC31886001202E4970
:100630001439086045E000BF2B48EC308068002882
:1006400007D12948EC30406A002802D1701E06000C
:10065000F2D100202449EC318860002E03D00846F6
:10066000406A002814D000201F49EC31486221491B
:1006700008602149C8630520FFF73CFD01201E49A1
:10068000C86305201B490860FFF77AFF0020B5E723
:100690001848806928706D1C601EC0B2044601288D
:1006A00005D1114811495122120189184860002CC6
:1006B00000D107E01420FFF71DFD01200A4914397D
:1006C0000862B8E700BF00BF0748EC304068002868
:1006D000FAD000200449EC314860012004498860C8
:1006E00000BF8BE7204E00001440004000F00140A6
:1006F00000F5014000450040C04F0040F8B50446F9
:100700000E4615461F4600200090002D16DDFFF70F
:10071000D1FE002812D0601009498860E007C00FA0
:1007200006D03A4629463046FFF760FF009005E0C4
:100730003A462946304600F005F800900098F8BD8A
:1007400080450040F8B504460D461646274F002D5B
:1007500001D10020F8BD20782549C861641C012022
:100760002449886031E000BF2348C069002806D1D1
:100770002148406A002802D1781E0700F4D1002FDA
:1007800003D01D48406A002813D000201A4948624F
:10079000174908601949C8630520FFF7ABFC012021
:1007A0001649C863052012490860FFF7E9FE0020DA
:1007B000D0E700201049C861681EC0B2050000D112
:1007C00004E020780A49C861641CCCE700BF002E11
:1007D0000AD000200849486001200649486100BF4E
:1007E000054840680028FBD00120B3E7204E0000F8
:1007F000004500400040004000410040C04F004024
:10080000100800000000002008000000380200006E
:08081000000000000024F400C8
:04000005000000C136
:00000001FF
