:020000040000FA
:1000000008080020F50000000701000009010000B9
:1000100000000000000000000000000000000000E0
:100020000000000000000000000000000B010000C4
:1000300000000000000000000D0100000F010000A2
:100040001101000011010000110100001101000068
:10005000110100000000000011010000110100006A
:100060001101000011010000110100001101000048
:100070001101000011010000110100001101000038
:100080001101000011010000110100001101000028
:100090001101000011010000110100001101000018
:1000A000110100001101000000000000000000002C
:1000B0000000000000000000000000000000000040
:1000C0000348854600F02CF800480047AD020000C8
:1000D00008080020401E00BF00BF00BF00BF00BFD7
:1000E00000BF00BF00BF00BF00BF00BF00BFF1D115
:1000F000704700000748026803210A43026006486F
:10010000804706480047FEE7FEE7FEE7FEE7FEE71A
:10011000FEE7000024050040BD010000C100000012
:10012000064C0125064E05E02046E36807C82B4330
:1001300098471034B442F7D3FFF7C6FF8405000098
:10014000940500007CB50546002001900090002435
:10015000D720694608710AE06B4601AA02212846A9
:1001600000F0C8F9601C84B20A2C00DD04E0684687
:10017000407880210842EFD000BF7CBD7FB50646A5
:100180000D46002002900390009001903046FFF74A
:10019000D9FF9F20694608726B4602AA05213046A6
:1001A00000F0A8F9002405E06946601C085C2855A9
:1001B000601CC4B2042CF7DB7FBD000010B500F05A
:1001C00043F8002805D0074807494860C813074985
:1001D000886100F01FF8002802D0012004498860DF
:1001E00010BD0000DFFF07C000050040006C0040AC
:1001F0000006004002E008C8121F08C1002AFAD118
:1002000070477047002001E001C1121F002AFBD196
:10021000704700000B48008CC0B2012810D109487B
:10022000808C0007000F0BD10648806AF02108403F
:10023000402805D10348C06A084201D10120704717
:100240000020FCE7C00F00F01748008CC0B2012866
:1002500027D11548808C0007000F22D11248806AF0
:10026000F021084205D11048C06A084201D101209E
:1002700070470D48806AF0210840102805D10A48CF
:10028000C06A084201D10120F2E70748806AF021E4
:100290000840302805D10448C06A084201D1012035
:1002A000E6E70020E4E70000C00F00F01CB50020E6
:1002B0000B230A2209210090082000F055F80022A3
:1002C0000321104600F096F8054610E001A92846E3
:1002D000FFF754FF642000F00BF8002405E001A9AB
:1002E000085D00F077F8601CC4B2042CF7DBEDE782
:1002F00001B505E00098401E00900348FFF7EAFEB4
:1003000000980028F6D108BDE703000010B58A0068
:1003100005231B07072424021B1984001A5110BD52
:1003200010B58A0005231B07072424021B1984002B
:100330001A5110BD01210522120707231B02D218F2
:100340008300D150704701210522120707231B02A9
:10035000D2188300D150704701218140014A916039
:100360007047000000050050F8B507460C461546DA
:100370001E462046FFF7DEFF00213046FFF7C6FF8E
:100380001048C4604661069800280DD03846FFF733
:10039000D1FF00212846FFF7B9FF0A4805618760B1
:1003A000012008494031C8620748064948620420D4
:1003B00008600120054988600860002004498860C1
:1003C000F8BD00000025004000509D0000200040C6
:1003D000002100400549C86100BF0549C9690129DC
:1003E000FBD10021024AD161704700000025004086
:1003F00000210040F7B506460F46002E01D13B48CC
:1004000000E03B480446002E1FD11920FFF79BFF58
:100410001820FFF798FF00211720FFF781FF1E200B
:10042000FFF791FF19200521090261188860182043
:10043000052109026118C860172005210902611809
:1004400008611E20FFF788FF1DE01720FFF77BFFE4
:100450001420FFF778FF00211620FFF761FF152019
:10046000FFF771FF17200521090261188860142029
:1004700081016118C8601620052109026118086110
:100480001520FFF769FF0120000705210902611807
:100490004862002F06D0012F06D0022F06D0032F6E
:1004A00008D105E0002507E0022505E0042503E06A
:1004B000062501E0002500BF00BF0298002806D0F5
:1004C00001202843152189016118486103E01520A6
:1004D0008001201845610021FF20093001510120D1
:1004E00005210902611808602046FEBD0030004069
:1004F00000400040FFB581B000270026019D1F4845
:10050000019D854201D11E2400E0152400BF012079
:10051000A0401B49C86000BF27E00398805D05210B
:1005200009026918C86100E07F1CFF2009304059AA
:10053000002803D1032000038742F5D303200003E2
:10054000874205D12046FFF707FF002005B0F0BD28
:100550000021FF2009304151052000022818806940
:10056000C1B204988155701C86B202988642D4DBD1
:100570002046FFF7F1FE0120E8E7000000300040D0
:100580000005005094050000000000200400000059
:08059000F40100000024F40056
:04000005000000C136
:00000001FF
