:020000040000FA
:1000000008080020F50000000701000009010000B9
:1000100000000000000000000000000000000000E0
:100020000000000000000000000000000B010000C4
:1000300000000000000000000D0100000F010000A2
:100040001101000011010000110100001101000068
:10005000110100000000000011010000110100006A
:100060001101000011010000110100001101000048
:100070001101000011010000110100001101000038
:100080001101000011010000110100001101000028
:100090001101000011010000110100001101000018
:1000A000110100001101000000000000000000002C
:1000B0000000000000000000000000000000000040
:1000C0000348854600F02CF8004800473502000040
:1000D00008080020401E00BF00BF00BF00BF00BFD7
:1000E00000BF00BF00BF00BF00BF00BF00BFF1D115
:1000F000704700000748026803210A43026006486F
:10010000804706480047FEE7FEE7FEE7FEE7FEE71A
:10011000FEE700002405004045010000C10000008A
:10012000064C0125064E05E02046E36807C82B4330
:1001300098471034B442F7D3FFF7C6FFE00200003F
:10014000F002000010B500F043F8002805D0074881
:1001500007494860C8130749886100F01FF8002864
:1001600002D001200449886010BD0000DFFF07C0F5
:1001700000050040006C00400006004002E008C896
:10018000121F08C1002AFAD170477047002001E011
:1001900001C1121F002AFBD1704700000B48008CE0
:1001A000C0B2012810D10948808C0007000F0BD184
:1001B0000648806AF0210840402805D10348C06AFB
:1001C000084201D1012070470020FCE7C00F00F079
:1001D0001748008CC0B2012827D11548808C000731
:1001E000000F22D11248806AF021084205D1104840
:1001F000C06A084201D1012070470D48806AF02191
:100200000840102805D10A48C06A084201D10120DF
:10021000F2E70748806AF0210840302805D10448F9
:10022000C06A084201D10120E6E70020E4E70000AF
:10023000C00F00F01220162108E0012205231B0741
:10024000072424021B1984001A51401C8842F4D947
:1002500000BF25E0122000F033F8132000F038F83A
:10026000142000F02DF8152000F032F8162000F0D0
:1002700027F8FF202D3000F015F8122000F028F8A4
:10028000132000F01DF8142000F022F8152000F0D3
:1002900017F8162000F01CF8FF202D3000F002F8AF
:1002A000D8E7000001B505E00098401E0090034823
:1002B000FFF710FF00980028F6D108BDE703000003
:1002C00001218140014AD1607047000000050050C3
:1002D00001218140014A91607047000000050050F3
:1002E000F002000000000020040000007C0100007B
:0402F0000024F400F2
:04000005000000C136
:00000001FF
