:020000040000FA
:1000000008080020D5000000E7000000E90000001B
:1000100000000000000000000000000000000000E0
:10002000000000000000000000000000EB000000E5
:100030000000000000000000ED000000EF000000E4
:10004000F1000000F1000000F1000000F1000000EC
:10005000F100000000000000F1000000F1000000CD
:10006000F1000000F1000000F1000000F1000000CC
:10007000F1000000F1000000F1000000F1000000BC
:10008000F1000000F1000000F1000000F1000000AC
:10009000F1000000F1000000F1000000F10000009C
:1000A000F1000000F100000000000000000000006E
:1000B0000000000000000000000000000000000040
:1000C0000348854600F01CF8004800471502000070
:1000D000080800200748026803210A430260064816
:1000E000804706480047FEE7FEE7FEE7FEE7FEE73B
:1000F000FEE700002405004025010000C1000000CB
:10010000064C0125064E05E02046E36807C82B4350
:1001100098471034B442F7D3FFF7D6FF64030000CA
:100120007403000010B500F043F8002805D007481C
:1001300007494860C8130749886100F01FF8002884
:1001400002D001200449886010BD0000DFFF07C015
:1001500000050040006C00400006004002E008C8B6
:10016000121F08C1002AFAD170477047002001E031
:1001700001C1121F002AFBD1704700000B48008C00
:10018000C0B2012810D10948808C0007000F0BD1A4
:100190000648806AF0210840402805D10348C06A1B
:1001A000084201D1012070470020FCE7C00F00F099
:1001B0001748008CC0B2012827D11548808C000751
:1001C000000F22D11248806AF021084205D1104860
:1001D000C06A084201D1012070470D48806AF021B1
:1001E0000840102805D10A48C06A084201D1012000
:1001F000F2E70748806AF0210840302805D104481A
:10020000C06A084201D10120E6E70020E4E70000CF
:10021000C00F00F008B500200B230A22092100902E
:10022000082000F039F800BF0BA000F08BF800BFE9
:1002300011E000F067F80446204600F073F8712CD6
:1002400001D0512C06D100BF06A000F07BF800BF02
:1002500000BFFEE700BFECE7200A0D537461727423
:100260003A200000200A0D45786974210A0D00002B
:1002700010B58A0005231B07072424021B198400DC
:100280001A5110BD01210522120707231B02D218A3
:100290008300D15070470000F8B507460C4615465C
:1002A0001E462046FFF7EEFF00213046FFF7E0FF35
:1002B0001048C4604661069800280DD03846FFF704
:1002C000E1FF00212846FFF7D3FF0A480561876058
:1002D000012008494031C8620748064948620420A5
:1002E0000860012005498860086000200449886092
:1002F000F8BD00000025004000509D000020004097
:100300000021004000BF054880680128FBD1002083
:100310000249886002488069C0B2704700210040ED
:10032000002500400549C86100BF0549C969012988
:10033000FBD10021024AD161704700000025004036
:100340000021004030B50346002528466D1C1C5C8A
:1003500005E02046FFF7E6FF28466D1C1C5C002CDC
:10036000F7D130BD7403000000000020040000003D
:080370005C0100000024F40010
:04000005000000C136
:00000001FF
