:020000040000FA
:1000000008080020F50000000701000009010000B9
:1000100000000000000000000000000000000000E0
:100020000000000000000000000000000B010000C4
:1000300000000000000000000D0100000F010000A2
:100040001101000011010000110100001101000068
:10005000110100000000000011010000110100006A
:100060001101000011010000110100001101000048
:100070001101000011010000110100001101000038
:100080001101000011010000110100001101000028
:100090001101000011010000110100001101000018
:1000A000110100001101000000000000000000002C
:1000B0000000000000000000000000000000000040
:1000C0000348854600F02CF8004800477502000000
:1000D00008080020401E00BF00BF00BF00BF00BFD7
:1000E00000BF00BF00BF00BF00BF00BF00BFF1D115
:1000F000704700000748026803210A43026006486F
:10010000804706480047FEE7FEE7FEE7FEE7FEE71A
:10011000FEE700002405004045010000C10000008A
:10012000064C0125064E05E02046E36807C82B4330
:1001300098471034B442F7D3FFF7C6FFD803000046
:10014000E803000010B500F063F8002805D0074868
:1001500007494860C8130749886100F03FF8002844
:1001600002D001200449886010BD0000DFFF07C0F5
:1001700000050040006C00400006004002E008C896
:10018000121F08C1002AFAD170477047002001E011
:1001900001C1121F002AFBD17047000010B50020DA
:1001A0000D49086001208107086000BF0A48006807
:1001B0000028FBD01220162108E0012205231B078E
:1001C000072424021B1984001A51401C8842F4D9C8
:1001D00000BF00F0BBF810BD000100400B48008CD0
:1001E000C0B2012810D10948808C0007000F0BD144
:1001F0000648806AF0210840402805D10348C06ABB
:10020000084201D1012070470020FCE7C00F00F038
:100210001748008CC0B2012827D11548808C0007F0
:10022000000F22D11248806AF021084205D11048FF
:10023000C06A084201D1012070470D48806AF02150
:100240000840102805D10A48C06A084201D101209F
:10025000F2E70748806AF0210840302805D10448B9
:10026000C06A084201D10120E6E70020E4E700006F
:10027000C00F00F0FFF792FF3FE0204820494860A0
:1002800000202049086001201F49486000BF1D4828
:1002900000680028FBD000201A49C86001201A49D4
:1002A000886000BF1748C0680028FBD01748006866
:1002B000012817D111480078C007C00F03D01220C1
:1002C00000F03CF802E0122000F030F80B48007813
:1002D0000221084203D0132000F030F802E013207E
:1002E00000F024F800200749086101200649086150
:1002F00000BF044800690028FBD0BEE700000020D2
:1003000000150040001100400010004000140040A3
:1003100001B505E00098401E00900348FFF7DAFEA3
:1003200000980028F6D108BDE703000001218140B4
:10033000014AD16070470000000500500121814052
:10034000014A9160704700000005005010B504207C
:100350001949C86028208860012008611748486250
:10036000174888621748C861174808620020C862A9
:100370000120086300204861144888610220486316
:100380000846406B8007800F022804D11048C863DC
:10039000104888630BE00848406B8007800F0128F5
:1003A00005D1FF200449C863FF200830886303207B
:1003B000FFF7AEFF10BD000000150040E7C2C3C448
:1003C000C8C7C6C5E7E7E7E7C2C2C200010104012A
:1003D000FFFF000021100100E803000000000020E2
:1003E000080000007C010000000000000024F40070
:04000005000000C136
:00000001FF
