:1000000000400020D502000011030000130300008F
:1000100000000000000000000000000000000000E0
:1000200000000000000000000000000015030000B8
:10003000000000000000000017030000190300008A
:100040001B0300001B0300001B0300001B03000038
:100050001B030000000000001B0300001B03000046
:100060001B0300001B0300001B0300001B03000018
:100070001B0300001B0300001B0300001B03000008
:100080001B0300001B0300001B0300001B030000F8
:100090001B0300001B0300001B0300001B030000E8
:1000A0001B0300001B030000000000000000000014
:1000B0000000000000000000000000000000000040
:1000C00010B5064C2378002B07D1054B002B02D02E
:1000D000044800E000BF0123237010BD4404002049
:1000E000000000006C06000008B5084B002B03D090
:1000F0000748084900E000BF07480368002B00D10B
:1001000008BD064B002BFBD09847F9E70000000024
:100110006C0600004804002040040020000000009D
:10012000164B002B00D1144B9D46402292029A1A86
:10013000924600218B460F461348144A121A00F0CB
:1001400021F90F4B002B00D098470E4B002B00D00D
:1001500098470020002104000D000D48002802D01F
:100160000C4800F0E5F900F0E9F82000290000F063
:1001700013F800F0D3F8C04600000800004000204B
:100180000000000000000000440400206004002083
:100190003105000041050000F0B5E422A0244746E7
:1001A0000123E405D20080B4A3500C4A8027A35059
:1001B0000B4B7F009846A12580264346FA20ED0090
:1001C000B600E7504000665100F00CF84346FA20B4
:1001D000E6504000675100F005F8ECE72407000006
:1001E0000C05000082B00190019B002B17D0019BF1
:1001F000013B01930B4BC046C046C046C046C046BB
:10020000C046C046C046C046C046C046C046C046BE
:10021000C046013B002BEED1019B002BE7D102B081
:100220007047C046E7030000014A024B1A6070475E
:100230000024F400040000201F4B1B78012B00D089
:1002400070471E4B1B681B07FAD1F0221C4B1B6822
:10025000134018D11B4B1B6813421AD0174B1B6855
:100260001B07EDD1F022164B1B681340402BE7D142
:10027000144B1B681342E3D1C12380220121DB0010
:10028000D205D150DCE7102B0FD10E4B1B68134267
:10029000E8D10D4A0D4B1A6080220D4B12021A60F4
:1002A000054B1B78012BD9D0CAE7302BDAD1054B8F
:1002B0001B681342D6D1ECE7E00F00F0E40F00F02A
:1002C000E80F00F0EC0F00F0DFFF07C0040500406E
:1002D000186C00400848026803210A43026007497D
:1002E000074A084B9B1A03DD043BC858D050FBDC7F
:1002F000054880470548004724050040780600006F
:100300000000002044040020390200002101000008
:10031000FEE7FEE7FEE7FEE7FEE7FEE710B5002199
:10032000041C00F081F8044B1868C36B002B00D04C
:100330009847201C00F088F96806000070B50D4E43
:100340000D4D0024AD1BAD1005D0A300F3580134B2
:100350009847A542F9D100F079F9084E084D0024DC
:10036000AD1BAD1005D0A300F35801349847A5424A
:10037000F9D170BD3404002034040020340400207E
:100380003C04002070B583073FD0541E002A3BD0A8
:10039000CEB2031C032503E0621E002C34D0141CD3
:1003A00001335A1E16702B42F6D1032C24D9FF2597
:1003B0000D402A0215432A0415430F2C11D9261C7F
:1003C000103E3609013636011A1C9B19156055601E
:1003D0009560D56010329342F8D10F221440032C5F
:1003E0000AD9261FB6080136B6001A1C9B1920C26E
:1003F0009342FCD103221440002C05D0C9B21C1931
:1004000019700133A342FBD170BD141C031CCCE74F
:1004100008B5034B002B02D0024800F089F808BD54
:100420000000000041050000F0B556465F464D460D
:100430004446F0B40E1C3C4B87B01B6801900393FC
:100440004933FF330493A422039B52009F58002F8B
:100450004CD0049B984600239B46C4235B009C46DB
:10046000BC4463460293C6235B009A467C68BA4448
:10047000A5007D19013C08D526E06B1DFF331B68E4
:10048000B34204D0043D013C1ED3002EF5D17B685D
:100490006A68013BA3423AD05B466B60002AF1D008
:1004A0007B68029999460123A34009680591194286
:1004B00023D190477B684B45C5D143461B68BB425F
:1004C000C1D1043D013CE0D2184B002B0ED07B681B
:1004D000002B23D13B68002B24D04246381C1360EC
:1004E00000E000BF43461F68002FB6D107B03CBCF8
:1004F00090469946A246AB46F0BD5146096819425E
:1005000007D12B1C8433196801989047D2E77C608F
:10051000C4E72B1C843318689047CBE73B68B84688
:100520001F1CE1E70023FAE7680600000000000056
:1005300008B5011C00220020002300F01BF808BDB4
:1005400038B5094B094CE41AA41009D0084AA5187B
:10055000AD00ED182B68013C9847043D002CF9D103
:1005600000F07AF838BDC0463C040020400400206A
:10057000FFFFFF3FF8B544465F4656464D469B4653
:100580002F4BF0B41C68A4235B00051CE0580E1C24
:10059000904600284BD043681F2B0DDC5C1C002DBF
:1005A00021D102339B0044601E5000203CBC904689
:1005B0009946A246AB46F8BD224B002B3CD0C82042
:1005C000400000E000BF002836D0A42200235200E3
:1005D000A15843600160A0504032835004328350E0
:1005E0000124002DDDD09A009146814442468821A5
:1005F0004F467A50C4225200904680444246873982
:10060000994012688A460A43944642466146116000
:10061000842249465F4652008F50022DC1D1021CF0
:1006200055468D32FF3211680D431560B9E7201C25
:100630004D30FF30E050AEE701204042B6E7C04603
:100640006806000000000000FEE7C046F8B5C0469E
:10065000F8BC08BC9E467047F8B5C046F8BC08BC5C
:100660009E46704743000000080000200000000084
:08067000B0FAFF7F0100000059
:10067800000000000024F40000000000F402002044
:100688005C030020C40300200000000000000000FC
:100698000000000000000000000000000000000052
:1006A80000000000000000000000000064060000D8
:1006B8000000000000000000000000000000000032
:1006C8000000000000000000000000000000000022
:1006D8000000000000000000000000000000000012
:1006E8000000000000000000000000000000000002
:1006F80000000000000000000000000000000000F2
:1007080000000000000000000000000000000000E1
:1007180000000000000000000000000000000000D1
:1007280001000000000000000E33CDAB34126DE66E
:10073800ECDE05000B0000000000000000000000D7
:1007480000000000000000000000000000000000A1
:100758000000000000000000000000000000000091
:100768000000000000000000000000000000000081
:100778000000000000000000000000000000000071
:100AA8000800002011040000E9000000C100000057
:040AB800000000003A
:04000003000002D522
:00000001FF
