:020000040000FA
:1000000008080020F50000000701000009010000B9
:1000100000000000000000000000000000000000E0
:100020000000000000000000000000000B010000C4
:1000300000000000000000000D0100000F010000A2
:100040001101000011010000110100001101000068
:10005000110100000000000011010000110100006A
:100060001101000011010000110100001101000048
:100070001101000011010000110100001101000038
:100080001101000011010000110100001101000028
:100090001101000011010000110100001101000018
:1000A000110100001101000000000000000000002C
:1000B0000000000000000000000000000000000040
:1000C0000348854600F02CF80048004785020000F0
:1000D00008080020401E00BF00BF00BF00BF00BFD7
:1000E00000BF00BF00BF00BF00BF00BF00BFF1D115
:1000F000704700000748026803210A43026006486F
:10010000804706480047FEE7FEE7FEE7FEE7FEE71A
:10011000FEE700002405004045010000C10000008A
:10012000064C0125064E05E02046E36807C82B4330
:1001300098471034B442F7D3FFF7C6FFE00300003E
:10014000F003000010B500F06BF8002805D0074858
:1001500007494860C8130749886100F047F800283C
:1001600002D001200449886010BD0000DFFF07C0F5
:1001700000050040006C00400006004002E008C896
:10018000121F08C1002AFAD170477047002001E011
:1001900001C1121F002AFBD17047000070B500207A
:1001A0000F49086001208107086000BF0C48006803
:1001B0000028FBD000F0CEF80A480B494860102018
:1001C0001121032208E093000524240707252D02AE
:1001D000641985006351401C8842F4D900BF70BD8A
:1001E0000001004000000020001500400B48008C7A
:1001F000C0B2012810D10948808C0007000F0BD134
:100200000648806AF0210840402805D10348C06AAA
:10021000084201D1012070470020FCE7C00F00F028
:100220001748008CC0B2012827D11548808C0007E0
:10023000000F22D11248806AF021084205D11048EF
:10024000C06A084201D1012070470D48806AF02140
:100250000840102805D10A48C06A084201D101208F
:10026000F2E70748806AF0210840302805D10448A9
:10027000C06A084201D10120E6E70020E4E700005F
:10028000C00F00F008B5FFF789FF102000F058F804
:10029000C7B2112000F054F8C0B200903BE0002635
:1002A000102000F04DF8C4B2112000F049F8C5B29A
:1002B000012F03D1002C01D1012006430098012811
:1002C00003D1002D01D10220064327460095124894
:1002D000067000201149086001201149086000BF24
:1002E0000E4800680028FBD001200D4988600020DE
:1002F0000A49C86000BF0948C0680028FBD0002038
:100300000649086101200649086100BF03480069E9
:100310000028FBD000BFC2E7000000200011004011
:100320000010004001B505E00098401E0090034811
:10033000FFF7D0FE00980028F6D108BDE7030000C3
:10034000014603480069C840C007C00F704700005D
:100350000005005010B504201949C86028208860A5
:100360000120086117484862174888621748C86129
:10037000174808620020C862012008630020486115
:1003800014488861022048630846406B8007800F4C
:10039000022804D11048C863104888630BE008485D
:1003A000406B8007800F012805D1FF200449C863F6
:1003B000FF20083088630320FFF7B4FF10BD000062
:1003C00000150040E7C2C3C4C8C7C6C5E7E7E7E7F2
:1003D000C2C2C20001010401FFFF000021100100A0
:1003E000F003000000000020080000007C01000075
:0803F000000000000024F400ED
:04000005000000C136
:00000001FF
