:020000040001F9
:10400000D83B0020C1410100D3410100D54101004E
:1040100000000000000000000000000000000000A0
:10402000000000000000000000000000D741010077
:104030000000000000000000D9410100DB41010048
:10404000DD410100DD410100DD410100DD410100F4
:10405000DD41010000000000357A010065480100E3
:10406000DD410100DD410100DD410100DD410100D4
:10407000DD410100DD410100DD410100DD410100C4
:10408000DD410100E5580100DD410100DD41010095
:1040900071590100DD410100FF610100DD410100B6
:1040A000DD410100DD4101000000000000000000D2
:1040B0000000000000000000000000000000000000
:1040C00000F002F800F040F80CA030C808382418BE
:1040D0002D18A246671EAB4654465D46AC4201D140
:1040E00000F032F87E460F3E0FCCB6460126334232
:1040F00000D0FB1AA246AB46334318479440000059
:10410000B4400000103A02D378C878C1FAD85207F8
:1041100001D330C830C101D504680C60704700007D
:104120000023002400250026103A01D378C1FBD8D3
:10413000520700D330C100D50B6070471FB5C04691
:10414000C0461FBD10B510BD03F0EBFF1146FFF7D1
:10415000F5FF00F094F904F003F803B4FFF7F2FF61
:1041600003BC04F007F80000401E00BF00BF00BF02
:1041700000BF00BF00BF00BF00BF00BF00BF00BF47
:1041800000BFF1D17047000070B505460C461646D9
:1041900002E00FCC0FC5103E102EFAD2082E02D32B
:1041A00003CC03C5083E042E07D301CC01C5361F3E
:1041B00003E021782970641C6D1C761EF9D270BD55
:1041C0000A48026803210A430260094880470948F7
:1041D0000047FEE7FEE7FEE7FEE7FEE7FEE700003A
:1041E00005480649064A074B704700002405004071
:1041F00011420100C1400100D82B0020D83B002013
:10420000D8330020D83300201D491C48086070476F
:104210001C48018CC9B2012917D1828C120714D114
:10422000028D1206130F03D1838D1B061B0F1ED0A8
:10423000120F012A03D1838D1B061B0F17D0032AEF
:1042400003D1828D1206120F11D001290ED1818C5B
:1042500009070BD1018D0906090F042906D1808DAC
:104260000006000F02D10849012088607047084A03
:1042700006495160D113074A9161EBE70024F4002D
:1042800000200020C00F00F000060040DFFF07C044
:1042900000050040006C0040BFF34F8FFE49FD4811
:1042A000C860BFF34F8FFEE7BFF34F8FFA49F9485D
:1042B000C860BFF34F8FFEE7BFF34F8FF649F54855
:1042C000C860BFF34F8FFEE7BFF34F8FF249F1484D
:1042D000C860BFF34F8FFEE710B500F02AFB10BD9A
:1042E00010B5EE488188EE4800F0DAFE00280FD0C5
:1042F00008280DD0EB4988420AD0EB49884207D004
:10430000BFF34F8FE449E348C860BFF34F8FFEE728
:1043100010BD012916D1FF222D32E049102809D005
:10432000112810D0BFF34F8FDB49DA48C860BFF3C4
:104330004F8FFEE78888801C88808888904201D94A
:104340003C20888070478888801E888088883C2828
:10435000F8D28A80704708B502F016FF684603F06D
:1043600059F90099084310D1CC48002101704078D8
:1043700000280AD031DF002807D0BFF34F8FC6498D
:10438000C448C860BFF34F8FFEE708BDF8B50746C5
:1043900001F0D0FF3946C24800F0BAFD3946C348A3
:1043A00000F0AAFC384600F087FF3888B94DBA4EB5
:1043B000BA4C102815D011283FD013284AD01928FC
:1043C0000ED1B87900280BD100F032FBB949B848BA
:1043D0000860091D08602078002847D0012060701F
:1043E000F8BD00F025FBB8886080B420A0800121D2
:1043F00000220904A06801F05DFB002805D0BFF38E
:104400004F8FF560BFF34F8FFEE701210022C903F4
:10441000E06801F04FFB002805D0BFF34F8FF56037
:10442000BFF34F8FFEE703F09BFA0028D8D0BFF30D
:104430004F8FF560BFF34F8FFEE702F066F900285B
:1044400005D0BFF34F8FF560BFF34F8FFEE701201C
:104450002070C4E7984A002160887FDF0028BFD021
:10446000BFF34F8FF560BFF34F8FFEE731DF0028BA
:10447000B6D0BFF34F8FF560BFF34F8FFEE7002636
:104480009CB08E4B062204213046009601F074FA4F
:10449000804C814D002805D0BFF34F8FEC60BFF3F7
:1044A0004F8FFEE7864A0121864801F0DAFA00289C
:1044B00005D0BFF34F8FEC60BFF34F8FFEE7824A0A
:1044C0000121824801F0CDFA002805D0BFF34F8FBB
:1044D000EC60BFF34F8FFEE77D49012003F031FB15
:1044E000002805D0BFF34F8FEC60BFF34F8FFEE77E
:1044F0000023784A0221784803F001FA002805D009
:10450000BFF34F8FEC60BFF34F8FFEE700235022C5
:104510007249082001F042FE002805D0BFF34F8FFA
:10452000EC60BFF34F8FFEE76D4801F058FE0028A6
:1045300005D0BFF34F8FEC60BFF34F8FFEE76948A4
:1045400001F055FE002805D0BFF34F8FEC60BFF39C
:104550004F8FFEE702F09EFE002805D0BFF34F8F7D
:10456000EC60BFF34F8FFEE76946112003F013FAAA
:10457000002805D0BFF34F8FEC60BFF34F8FFEE7ED
:1045800059480390029668460178817101A802F0AB
:10459000D1FA002805D0BFF34F8FEC60BFF34F8FE7
:1045A000FEE71120694608720A2250A102A87CDFAA
:1045B000002805D0BFF34F8FEC60BFF34F8FFEE7AD
:1045C0004D4878DF002805D0BFF34F8FEC60BFF374
:1045D0004F8FFEE7FF2091300096694601960880D4
:1045E00042004A808E80C88068467ADF002805D065
:1045F000BFF34F8FEC60BFF34F8FFEE70621684695
:104600003E4A0170516810689268119110901292A0
:104610003C2101A803F08CFC022001900121684696
:104620004172818103270490078410A8099000211A
:1046300001A801F010F9002805D0BFF34F8FEC60FE
:10464000BFF34F8FFEE72248282146618661C6618D
:10465000066246622A48067006720182B4214182CF
:10466000032118A8017210961196139610A814969B
:1046700006711AA8129001200146103110A801738A
:104680000020014610A841730020014610A8817344
:10469000012037E00400FA0500ED00E004200020CE
:1046A0006424002003300000013400004C2400206A
:1046B0000C0003004007005014200020242100209B
:1046C000D94201000C200020E1420100102000200E
:1046D00024240020660600001C200020D423002093
:1046E0008D43010057430100C94201004E6F7264BF
:1046F00069635F48524D000041030000848101005E
:10470000382400200146103110A8C1730020014652
:1047100010A801740146494800F022FC002805D089
:10472000BFF34F8FEC60BFF34F8FFEE701200146D0
:104730001596169617961896103118A81996417066
:1047400001200146103118A881700020014618A8E8
:10475000C17001200146103118A80171012710A86D
:104760000776642118A8017015A9354800F0EFFA02
:10477000002805D0BFF34F8FEC60BFF34F8FFEE7EB
:104780004021684603F0D4FB2EA1684601F0A0F852
:1047900001200146103108A801770020014608A831
:1047A0004177684600F0B3F9002805D0BFF34F8F7A
:1047B000EC60BFF34F8FFEE70520C0030096019029
:1047C00002900396049603210596684601731B48E0
:1047D00081896846C18107741F480690684600F0C9
:1047E00038FD002805D0BFF34F8FEC60BFF34F8F2B
:1047F000FEE71A491E2008808878E12238431040DD
:104800000C30DF22104088700720C870102008711B
:10481000134873DF002805D0BFF34F8FEC60BFF360
:104820004F8FFEE700F0CEF83DDF0028FCD0BFF34D
:104830004F8FEC60BFF34F8FFEE700006424002031
:104840004C2400204E6F7264696353656D69636F19
:104850006E647563746F7200B94201001420002009
:104860003824002047480168002961D010B5002194
:10487000016045488068454A0121C0B251604B2122
:1048800009014843FF2103F055FB41004018FF3068
:104890000F303F4980B2884201D3642136E03D4A5F
:1048A000904209D9081A3A214843642103F050FB89
:1048B0006421081AC1B229E03749884209D9101A7F
:1048C00018214843A02103F043FB2A21081AC1B252
:1048D0001CE0324A90420AD9081A0C214843FF21B1
:1048E0002D3103F035FB1221081AC1B20EE02C491C
:1048F00088420AD9101A06214843FF21553103F096
:1049000027FB0621081AC1B200E00021254800F06B
:10491000C3FA00280BD0082809D02349884206D0C2
:104920002249884203D022A25321FFF7B5FC10BDD3
:10493000704770B522480124446013481821416033
:10494000104E002535600460072027DF002803D0C3
:1049500017A26921FFF7A0FC0321072028DF002808
:1049600003D013A26C21FFF797FC072023DF002858
:1049700003D00FA26F21FFF78FFC3560034804605E
:1049800070BD0000007100400075004000700040E4
:10499000B80B0000540B0000B40A000088090000A6
:1049A000340800004C2400200330000001340000D3
:1049B0002E2E5C626174746572792E6300000000B3
:1049C0000073004070B51F48012484601E4D1F49CC
:1049D0002A46002044DF002803D01DA25521FFF7FE
:1049E0005BFC012042DF002803D019A25A21FFF707
:1049F00053FC1A4800214160816009210161184877
:104A0000C460194A1749116018490C600121184AFD
:104A10008904D1601849174A0A6100BF00BF00BF6E
:104A20002C60164A0A6100BF00BF00BF046070BD61
:104A30001149002008610A49012048600C4980049E
:104A4000C86070474007005000600040409100403F
:104A50002E2E5C6C65642E63000000000095004003
:104A600000900040841E00004095004000920040ED
:104A700000050050031F0200006500400312030000
:104A8000F0B58FB01D4614460E00074604D179A23A
:104A90006D210020FFF700FC002C04D175A26E21CF
:104AA0000020FFF7F9FB0020009001900290039096
:104AB00004900590694606900A7802210A436946E7
:104AC0000A70012208A98A7069460F8407902A7823
:104AD0000A776A784A77897FF9221140891CE72290
:104AE00011404A08520069468A7708A9099107A926
:104AF0000A910B900C9069468C85C8850C866A4893
:104B00000D9609AA0088149BA2DF0FB0F0BD30B546
:104B100085B0044601206946887164488880624AED
:104B200001A90120A0DF00287ED1228825463C353E
:104B3000002A08D05E4800902B465E486168FFF767
:104B40009FFF002870D12289002A08D05A4800907F
:104B50002B465A48E168FFF793FF002864D1228A68
:104B6000002A08D0564800902B4656486169FFF746
:104B700087FF00287CD1228B002A08D05248009061
:104B80002B465248E169FFF77BFF002870D1228C49
:104B9000002A08D04E4800902B464E48616AFFF725
:104BA0006FFF002864D1228D002A08D04A48009067
:104BB0002B464A48E16AFFF763FF002858D1206B73
:104BC000002829D0027869460A720188FF22120261
:104BD00011400A0A69464A72FF2201681204114014
:104BE0000A0C69468A7201682B460A0E6946CA7227
:104BF00002790A73027A4A7301890A0A69468A733A
:104C000080680822000CC8733548009002A9354816
:104C1000FFF736FF00282BD1606B00280BD03249FC
:104C2000009102792B4600E022E001682F48FFF74F
:104C300027FF00281CD1A06B002818D002786946F5
:104C40000A7242884A72120A8A728288CA72120AE8
:104C50000A73C0884873000A8873254800902B4661
:104C6000072202A92348FFF70BFF002800D10020EC
:104C700005B030BD2E2E5C2E2E5C2E2E5C2E2E5CB2
:104C80002E2E5C536F757263655C626C655C626C42
:104C9000655F73657276696365735C626C655F649A
:104CA00069732E6300000000342000200A18000001
:104CB00036200020292A00003E200020242A00005F
:104CC00046200020252A00004E200020272A000030
:104CD00056200020262A00005E200020282A0000FE
:104CE00066200020232A00006E2000202A2A0000CF
:104CF00076200020502A000008B50A88102A1AD011
:104D0000112A1AD0502A1BD1027D002A18D0891DE1
:104D10000A8843899A4213D10A8B022A10D1026869
:104D2000002A0DD0CA7E8B7E11021943C907C90F14
:104D300007D0002106E0898801E00021C9434182B3
:104D400008BD0121009102686946904708BDF0B591
:104D5000054693B0086828600020C043688208793F
:104D60002875FF20287401270E466846877364491A
:104D700081812A1D03A93846A0DF00287ED1287D25
:104D8000002400280DD0012001461031684601940E
:104D90000171717B41718179F9200140891C68465C
:104DA0008171059406940794089409940A946946BD
:104DB0000B94087D02210843694608752A7DEF217E
:104DC000002A02D01022104300E008406A46107505
:104DD000287D002800D001A80A900122684682722E
:104DE000484B03810094B37B0370F37B437080785E
:104DF000F9231840801CF72318400F46384041081B
:104E0000490068468170317B017402A80C906846A5
:104E10000E940F940D9002874487828704A8109007
:104E2000A888AB1D0CAA05A9A2DF002832D1B06862
:104E300000282DD0012069468872334808810094EB
:104E4000307C0870002048708878F9210840801C68
:104E5000F72108403840400840006946887011A892
:104E6000B16800F02FFD02A90C9169460E940F94D1
:104E70000D9108874C87888711A800E00AE0109000
:104E80002A46E8880E320CA9A3DF002802D100E0F0
:104E9000EC81204613B0F0BD33B486B004466946B9
:104EA000227C097F00208A4222D0012568460582A3
:104EB0002174E08807AB04AA0021A4DF002817D1E1
:104EC000608A1249884216D0207D002813D0002025
:104ED000009001900290694603900D82E2880A805A
:104EE0008D70888004A8029007A80390608AA6DFCE
:104EF00008B030BC704708B030BC082070470000D4
:104F00000F180000192A000008290000FFFF000008
:104F100008B50A88102A17D0112A17D0502A18D19C
:104F2000891D0A8883899A4213D10A8B022A10D1DB
:104F30000268002A0DD0CA7E8B7E11021943C90770
:104F4000C90F07D0002106E0898801E00021C9438C
:104F5000018408BD0121009102686946904708BD9F
:104F6000F0B5044697B008682060087960710020A9
:104F7000C04320840025222005554C2005530127DD
:104F800008A80E468772994968460185A21D0AA99C
:104F90003846A0DF00287DD1012001461031684647
:104FA00007950177317B4177817FF9221140891C78
:104FB00081770195009502950395049506950178F2
:104FC000102001436846017007A8059008A8877162
:104FD0008749684681840895717B08A80170B17B78
:104FE00041708178E7201140891C0140394308A8AD
:104FF000817009A80B9008A80C900D950E950F953F
:1050000012AA0021204600F0ABF8014668468186CE
:105010001421C586018712A80F902346E088083323
:105020000BAA6946A2DF002838D1B068002834D026
:105030000395049505950695079508956846099585
:10504000017B0220014368460173877169498180B1
:105050000095F17B0170317C41708078F921084026
:10506000801CE7210840410849006846817001A87A
:105070000C9068460E950F9510950D900787458703
:105080008787B06823461090D88810330CAA03A9EC
:10509000A2DF00E002E0002800D1002017B0F0BD40
:1050A00030B50546028C54488BB082421FD006AA08
:1050B000284600F055F86946044608800020029012
:1050C0000390049005902A890A8101228A728881BE
:1050D00006A804910590288C02A9A6DF002804D117
:1050E00069460988A14200D00C200BB030BD0820D1
:1050F0000BB030BD70B5054604464035A8890E4654
:10510000142807D12622A118881E02F0CBFEA889F8
:10511000401EA88180B241000919401CA8818E84DC
:1051200070BD40308089142801D0002070470120D4
:105130007047028C304B9A4202D141710020704777
:105140000820704720308170704703B482B001217D
:105150006A461180008A03AB0021A4DF04B07047C7
:10516000F7B542790026002A00D004262222135CDB
:105170000222002B00D01643CBB2FF2907D901220F
:105180001643029A090A53709170032502E00299AE
:1051900002254B7004464034A189002901D0102219
:1051A00016430027002919DDAA1C142A09D989B23F
:1051B000C91B4A00790009182431243002F072FE1C
:1051C0000CE07900029B0918898C5B191970090A97
:1051D0005970A1897F1CD5B2B942E5DCA089C01BFA
:1051E000A08102980670284603B0F0BD0D1800009B
:1051F000372A0000382A0000FFFF000038B5834935
:10520000834A488890420FD04A78824C521CD2B2CE
:105210004A70237B934208D37F4975DF002803D06F
:10522000A169002900D0884738BD00254D70217C38
:10523000002907D03B2176DF002803D0A16900298F
:1052400000D0884761690029EED0684600958847FC
:1052500038BD70B502463CCA6E490E463CC68469EC
:10526000436902698C614B61684C00250A612570B5
:10527000006800280CD001882181418861818188E3
:10528000A181C188E18164487ADF00280DD103E063
:1052900061487BDF002808D10020C0436080657032
:1052A0005E4A00215E4800F0DCFB70BD10B5574837
:1052B000406800F069FC10BDF8B5564C0788002620
:1052C000524A811CE389102F16D015466D68112FA4
:1052D00022D0122F37D0502F1DD1801D0188994226
:1052E00019D1018B022916D1C17E827E080210439A
:1052F000C007C00F0DD11CE08088508088891082C3
:10530000C8895082088A9082488AD0825670002BC1
:1053100001D100F04BF8F8BD0020C043508056701A
:10532000284600F031FC0028F5D0A169002908D1F9
:10533000F8BD284600F028FC0028F9D0A169002912
:10534000F6D08847F8BD88881082C88850820889BE
:1053500090824889D08200F029F8F8BDF8B52B4D2D
:1053600001882981418869818188A981C188E98171
:1053700029487ADF060010D12A48012441880838DC
:10538000028891420BD34088814208D82148416964
:10539000002902D06846009488473046F8BD2C703A
:1053A0001D49688875DF06466C70F6E7F8B51D483C
:1053B000184D4288083803880026144C69699A42BF
:1053C0000AD34088824207D80120002902D00090E9
:1053D000684688472670F8BD2078002805D0002947
:1053E000F8D0684600968847F4E7607800280BD02C
:1053F000A9680022606800F05DFB0028EAD0A96976
:105400000029E7D08847E5E76968F2E780200020B7
:10541000FFFF0000B424002088200020FD5101007F
:105420008420002090200020FFB585B00546022092
:10543000864608980E9C02910090207801900027E3
:1054400028883E4600283FDD6868B1004018028881
:1054500069460A8240884882002203A904A864DFC2
:1054600000285CD16846017B714520D1002F01D016
:10547000002200E002222078891841181F294DD807
:10548000002F07D1401CC0B2411C009B029A217022
:105490001A540127217800980A1803A904A864DF88
:1054A00000283CD169462078097B40182070288864
:1054B000761CB042C8DC002F06D021780198019AF2
:1054C000081A0099401E88540798029010208646BA
:1054D00008980E9C009020780190002728883E466E
:1054E000002842DD6868B1004018028869460A82D7
:1054F00040884882002203A904A864DF00280ED156
:105500006846017B714523D1002F01D0002200E0C5
:1055100002222078891841181F2902D90C2009B0CD
:10552000F0BD002F07D1401CC1B2481C009B029A5D
:1055300020705A540127217800980A1803A904A85A
:1055400064DF0028EBD169462078097B4018207081
:105550002888761CB042C5DC002F06D0217801983F
:10556000019A081A0099401E8854002009B0F0BD25
:10557000F7B582B00026054616700068144600286C
:1055800023D02879039F801C1F287DD81D206946C1
:105590000880B81C7DDF002877D12868022805D153
:1055A000684600881D2801D8092107E028790821CC
:1055B000002801D01D2801D968460088421C3A7095
:1055C00079702178801C08182070687900281CD018
:1055D0002078039F001D1F2856D8684679DF0028D1
:1055E00053D121780322481C20707A542178192243
:1055F000481C20707A54684601882078C0190170D0
:10560000090A41702078801C2070298900291ED049
:1056100001208446EA680398002A7DD02278531836
:105620009B1C1F2B30D81346521C491C2270C1549E
:1056300022786746511C2170875423782A891818CC
:10564000E96802F0CBFB2078297A4018207028699D
:10565000002815D00021415622788C46D01C039991
:105660001F2811D8501C022320708B5422780A2343
:10567000501C20708B5420786246431C23700A54BF
:10568000A88A00280CD001E075E075E02846009457
:10569000062202211430039BFFF7C6FE06006BD1E1
:1056A000A88B002809D028460094072203211C302B
:1056B000039BFFF7B9FE06005ED1A88C002809D035
:1056C00028460094152214212430039BFFF7ACFEDA
:1056D000060051D1E86A002840D0217884468E46E1
:1056E000891D03981F2946D861460B88062B13D3C2
:1056F0001922D201724F934201D9BB420CD16146AB
:105700004988062908D3914201D9B94204D1BB4244
:1057100005D0B94203D000E080E08B427ED87146CC
:10572000491C052372462170835422781223511C90
:105730002170835422786146098812181170090A71
:1057400051702178891CCAB22270614649881018AC
:105750000170090A41702078801C2070286B002895
:1057600030D0009000792378801CC0B2811C591879
:10577000039A1F2902D90C2005B0F0BD591C401C0A
:105780002170D0542178FF23481C20705354009876
:105790002178008889180870000A48702078801CD9
:1057A000C0B2207000998B88002B0BD0896800292B
:1057B0004BD080181A4602F011FB0098217800792E
:1057C0000818207028462030017E00293AD0009524
:1057D0006A6B039E002A3BD000250190002930D936
:1057E0000098416B0C2068430F1838792178C01C51
:1057F000705420781621401CC0B22070315420789B
:10580000401CC1B22170388889190870000A48709C
:105810002078801CC0B22070BA8800E015E0002A11
:1058200009D0B968002913D0801902F0D7FA20787E
:1058300039794018207001986D1C007EEDB2A842A5
:10584000CED80026304605B0F0BD072005B0F0BD2B
:10585000072005B0F0BD70B50D4692B000216A4634
:10586000117007241171002812D00189002905D078
:10587000C168002902D00978490702D4204612B035
:1058800070BD02A9FFF774FE0028F8D102AE00E057
:105890000026002D0BD028890028EFD101AA0AA9E3
:1058A0002846FFF765FE0028E9D10AAA00E0002299
:1058B000684603790178304672DF12B070BD00008F
:1058C000FFFF00000A78027049784170022070479B
:1058D00070B504460D46084602F05EFA2080656009
:1058E00070BD0000F8B5FB49002008604860886082
:1058F000C860F94908604860F84EF468601C36D00A
:10590000F748002740683169401A05022D0A28200F
:105910004443706822189068A84215D873692D1AFC
:10592000C719546A002B0AD0116AD0699847002819
:1059300008D0FF21EBA25531FEF7AEFC02E0D169A1
:10594000106A8847601CE2D1B178F078814206D1B4
:10595000401CC0B2F070022801D10020F070000697
:10596000EC49800D0F500120EB4900050860F8BD9F
:1059700010B500F0F6F910BDFFB581B00A9F1C46C6
:1059800015460E46980769D1002C67D00120E349DF
:1059900040040860E24940108860E2498860E249BA
:1059A000012048602F20FEF7DFFBCC4821464761ED
:1059B000067044600020002E13D00A46283A1039A1
:1059C000F30703D02832283110600870730808D01C
:1059D00090622827785450325031106008705B1E56
:1059E000F6D128214E433119BC4C03226270A160CC
:1059F0000A460870183248708D704A6018232E4687
:105A00005E430872B71848728D72CF60087448748C
:105A1000F2198D744A610021C943E160A070E07001
:105A20000121C24809050160C1480268C023120A69
:105A300012021A430260BF480160A94901988860B8
:105A4000BD4A1068FF231B02984303239B0318439E
:105A5000106048682061002005B0F0BD072005B047
:105A6000F0BD70B49D4D6C68002C12D0002A13D08C
:105A7000002811D02D780023002D07DD28265E4355
:105A8000A659002E0BD05B1CAB42F7DB70BC042088
:105A9000704770BC0820704770BC072070472825ED
:105AA00001265D4366512C19E2616160036070BCA0
:105AB00000207047F0B4894B5D68002D0CD01C7835
:105AC000A04201D2052902D2F0BC07207047282449
:105AD00044432E59012E02D0F0BC082070476419AF
:105AE0006468012C14D00026944D6C68E405E40D24
:105AF0001ED0103C0ED527073F0F083FBF08BF0040
:105B00007D19ED69A407E40EE5402C06A40F0BE017
:105B10000E46E9E7A5088A4FAD00ED192D68A407E8
:105B2000E40EE5402C06A40F012C26D0032C26D031
:105B300002248C469B68E100CC186378A7781D4648
:105B40005B1C9F4200D1002327789F4219D0182167
:105B500067684D43791914D001250D60486060488D
:105B6000406888600E6160464A61C8606A49637037
:105B700028050860F0BC002070470024D9E7012404
:105B8000D7E7F0BC04207047544A5168002909D077
:105B90001378984201D30720704728234343C958FC
:105BA000012901D008207047F0B4644B59680424DF
:105BB000C905C90D00291CD010390CD50D072D0FB2
:105BC000083DAD08AD00EB18DB698907C90ECB4075
:105BD0001906890F09E08B08594D9B005B191B685A
:105BE0008907C90ECB401906890F01291FD0032947
:105BF0001FD002219268C9008A18517895780B4607
:105C0000491C8D4200D10021167800258E4212D009
:105C1000182756687B43F3180DD002241C60586087
:105C200051703D49E00408602846F0BC70470021EF
:105C3000E0E70121DEE72046F0BC704770B4274A58
:105C40005068002815D03D4B5868C105C90D042087
:105C500000291FD010390FD50C07240F083CA408C9
:105C6000A400E318DB698907C90ECB401906890F28
:105C70000CE0082070BC70478B08314C9B001B194E
:105C80001B688907C90ECB401906890F012959D015
:105C9000032959D002219268C9008A185178947852
:105CA0000B46491C8C4200D10021157800248D42FE
:105CB000E0D0182655687343EB18DBD0032018603A
:105CC000001F5860517001201349000508602046EC
:105CD00070BC704740110140001101409820002025
:105CE000001501402E2E5C2E2E5C2E2E5C2E2E5C7E
:105CF0002E2E5C536F757263655C6170705F636FAD
:105D00006D6D6F6E5C6170705F74696D65722E632E
:105D100000000000B020002000E200E080E100E090
:105D200040130140001301400010014080E200E0F8
:105D300014E400E000E100E010E400E000ED00E029
:105D400000E400E00021A6E70121A4E7E449496856
:105D5000016000207047401A0002000A1060002015
:105D60007047F0B5002095B0C043DE4903900A6942
:105D70000A92C86807908B78CC78A34211D05B1C3C
:105D8000DBB28B70022B01D100238B701B06D64C2B
:105D90009B0DE35809939A181202120A0A61012214
:105DA00001E000220992CF4910920F9049780491A6
:105DB0004A1E0692D2B20592CA4A002993680B93F2
:105DC00052680C9260D014460E930599CA000E9941
:105DD00055182B78697899424ED0182159436A6832
:105DE0005B1C5118AA78DBB29A4200D100230A68E2
:105DF000022A02D0032A3CD131E04E6828217143A7
:105E000009198C46097E002933D002460146471CF9
:105E100021D0B14207D00A46282151430919496AC5
:105E20004F1CF6D117E0002F15D08A4203D1282647
:105E300070430019406A2826714309198F6872431C
:105E4000496A121951624A1C05D028225143091986
:105E50008E68F2198A6000216246117609E0411CC1
:105E600007D000212822504300190176406A421CC5
:105E7000F8D169789942B0D105994A1ED2B20592FB
:105E80000029A2D19749C86096480F99C0688842F6
:105E900001D0012100E000210F911099002926D0A6
:105EA00000240A9E099B401C1FD08E4A2820D168DE
:105EB0000C9D4843401985689D4202D9E91A8160CA
:105EC00013E05B1B2C19002585600576456AD560BB
:105ED0004269002A07D037193F023F0AC7600261B2
:105EE000039A426203916D1CDFD101200F90039849
:105EF00010907C48069AC06804990A90D2B2059224
:105F0000002970D077490C9B096908910B990E9173
:105F10000E99D200551881E01099491C06D0109AAC
:105F200028215143C9184C6A10941EE02978182280
:105F30004A436C68491CC9B2A4182970AA789142D6
:105F400001D1002129706268282151432668C918AF
:105F5000012E67D10E7E002E64D1A668CE60E66861
:105F60000E6126694E6164690C62CE68089C5F4FC1
:105F7000341B2402240ABC4203D20E69A4198C608B
:105F80000AE0089CA41B24020E69240AA64201D937
:105F9000341B00E000248C600024CC600C610124E0
:105FA0000C76A41E4C6228215143C9188C46411C12
:105FB00014D061468C6828214143C91889688C42F5
:105FC0000ED828214143C91889680C1B2821414358
:105FD000C9188C606146486210461FE010461DE0FB
:105FE0000146049003E02AE00491716AE41B4E1C10
:105FF0000BD028264E43F618B768A742F4D32827BB
:106000004F43FF18BF683F1BB7606646B4606446E5
:106010006162049928246143C9184A621099491C95
:1060200000D079E729786A789142FAD105994A1E19
:10603000D2B20592002900D06AE72A49C8602949EE
:106040000A98CC68844202D10F98002837D0079A6A
:106050002748284B651C34D028256C430C9D6419B7
:10606000A6681F4C64680F69E11B0D022D0AED1C28
:10607000521C0DD158602049486001211F4A400040
:1060800010601F4A10601F4801602F20FEF76CF857
:10609000B54200D23546E81900021B49000A0860E3
:1060A0000F494968001B091B0902090A0002C91CA3
:1060B000000A814203D9012014494004086015B048
:1060C000F0BD0121124A4904116098600A498860B4
:1060D0000C49012048602F20FEF746F815B0F0BDAE
:1060E0000015014098200020B0200020FFFF7F0015
:1060F00000000100401301400013014080E200E075
:1061000000E100E0001001404015014000E200E025
:1061100080E100E010B508461146FEF7C5F810BD55
:10612000F8B53F4C2078002837D02069002807D0E8
:106130000026E068002805D00025002E04D013E0DA
:106140000126F6E70125F8E768464EDF052806D068
:10615000002806D033A26921FEF79EF804E001264C
:1061600002E0216900988847002D12D160886946B5
:106170000880A06860DF052806D0002806D029A284
:106180008021FEF789F804E0012502E0E168A068BB
:106190008847002ED8D0002DCFD0F8BD002901D1DE
:1061A0000720704730B48C0702D0072030BC7047FE
:1061B0001B4CA16062802949636010DF0028F5D183
:1061C00001202070162023DF30BC704711DF00282B
:1061D00001D0012100E00021114A11707047002810
:1061E00003D00F49C860002070470E207047002878
:1061F00003D00B490861002070470E20704710B58E
:1062000007484068002808D08047002804D0FF21B4
:1062100004A23331FEF740F810BDFFF781FF10BD37
:10622000B82000202E2E5C2E2E5C2E2E5C2E2E5C96
:106230002E2E5C536F757263655C73645F636F6D64
:106240006D6F6E5C736F66746465766963655F68B5
:10625000616E646C65722E630000000015610100C0
:1062600030B5FF4C0546207983B00A2802D30420BC
:1062700003B030BD002805D100221146104601F0C0
:106280008BFAA0816A462179F64801F0C5F800280A
:10629000EED104234C222946684601F0E7F8002895
:1062A000E6D1F14A4C21284601F076FAEF49A08167
:1062B00042182079EE4980000A5041180023042238
:1062C000684601F0D3F80028D2D12079401C207113
:1062D000002003B030BDE24A00209070D0705378A7
:1062E0000146002B25DDF0B46820E24C484300193C
:1062F000447A64070AD5D478DF4D0778E600AF55B5
:1063000007461E377519641C6F60D4704224245CE4
:10631000022C09D094780778D84DE600AF5542306A
:106320007519641C68609470491C9942DCDBF0BCF0
:1063300070477047F0B5CA4F04463878D04D83B0E7
:10634000002802D1A968082088472088C94ECD4B73
:1063500014287DD019DC10282ED0112879D01328CC
:1063600011D1207AC0070ED0B87902210843B87144
:106370001868401C07D00020C349586648618861EE
:10638000C8610862486203B0F0BD17287FD0BF49DA
:10639000182871D05228F6D11868401C04D0B8795A
:1063A000C20701D080075FD5002211467889A9DF96
:1063B00000285FD103B0F0BDA948A1884181002029
:1063C000B04FC04338600722A11DB14801F006FD5F
:1063D00000207866607BC10713D04008072804D2EC
:1063E000C100A5484056072803DBA9680320884759
:1063F0001EE06821484381196822A248FDF7C4FEC7
:1064000016E0974900248878002811DD9B4FA148A9
:106410000090E000C01940680622401C009901F07D
:106420008DFC002819D08E48641C80788442F0DBF3
:10643000944B1A68501CBDD089480021C17101726B
:1064400069680029B6D0012000906846027101E019
:10645000C8E005E0DA8FC2804FE0E0003856C8E7B8
:106460000020B87103B0F0BD586E002805D0142884
:1064700004D90320A6E00AE015E1002182B2788960
:10648000A9DF002850D10120387203B0F0BDA41D4F
:1064900020780028F9D1B879C007F6D01868401CD8
:1064A0002ED00120F871322221461F46181D01F01E
:1064B00095FCE088F887386868214843801901F026
:1064C00037FD682138680A46484380196D49FDF751
:1064D0005BFE6C48FFF7C4FE042877D0002801D08B
:1064E000A968884769680029CFD0032000903878D0
:1064F0006A461071F88FD0806846884703B0F0BDB7
:10650000574AE18857780020002F11DD6822424366
:106510009219D28F8A4208D1682148438119682292
:106520005848FDF731FE0F204CE0401CB842EDDB2F
:106530000094072F01D3042044E0214632221C4658
:10654000181D01F04BFC00984549C088E0870020E9
:1065500027606066682078437F1C4F70801968222E
:106560004849FDF711FEFFF7B6FE01203C49002225
:10657000C8713B4811464089A9DF002822D1414813
:10658000FFF76EFE042802D000281BD10BE06968DB
:10659000002917D00420009020786A461071E08FFF
:1065A000D0806846884769680029A7D000200090FD
:1065B00020786A461071E08FD0806846884703B023
:1065C000F0BD03E0A968884703B0F0BD6968002901
:1065D00086D00420009038786A461071F88FD080F9
:1065E00068467EE77A78E1890020002A1ADD682370
:1065F00043439B19DB8F8B4211D16821484381199A
:1066000068222048FDF7C0FD0120F87100222249D0
:10661000788981DF0400D7D0A96888471DE0401C35
:106620009042E4DB1D48E188018021894180618935
:106630008180A189C180E1890181218A4181002273
:106640001146788981DF002801D0A9688847002297
:1066500011467889A9DF0400B6D02046A9681FE05A
:10666000CC200020DC200020D82000200000245373
:10667000C42800207C2500208C28002054280020DD
:106680000825002014250020502500206425002026
:1066900056250020572500201E2500204A250020D1
:1066A000884703B0F0BDA2791007000F1209012836
:1066B0000FD00228F5D1002AF3D0B8790124204365
:1066C000B871586E1E46002807D0142806D903203A
:1066D00009E0012AF1D803B0F0BD002182B2788927
:1066E000A9DF002802D0A968884700E03C726968E9
:1066F0000029F0D00220009030786A461071F08FA7
:10670000D0806846884703B0F0BDF0B5F74F83B03E
:10671000387800287ED0F648F64C0068401C32D00D
:106720001420694608806A46F3497889AADF002860
:1067300071D1EF4869460568C56409884166002D36
:106740006ADB7878854267DAF879002806D0682015
:10675000684300194C22E649FDF716FD387A0028F7
:106760000FD06820E549454328190A4610326CCA03
:106770004C306CC04B6A0A6A5C38896A0366C26531
:106780004166FFF7A8FD00221146104601F004F80B
:10679000694608807878002500280CDD6820684369
:1067A0000A4600194C2100F0F7FF69460880787806
:1067B0006D1C8542F2DB0888B989884216D0192100
:1067C0004901CF4800F0F4FE002845D13871054654
:1067D000787800280ADD682068430019FFF740FD3B
:1067E000002839D178786D1C8542F4DB00221146EF
:1067F000104600F0D1FF694608807878002500280F
:1068000011DD6820684300190A464C301C2100F055
:10681000C3FF02E022E01FE023E0694608807878A9
:106820006D1C8542EDDB0888F98988424ED0FF2136
:106830004131B44800F0BCFE00280DD17871054606
:106840007878002842DD284668214843061978797F
:106850004C360A2808D3042003B0F0BD082003B04A
:10686000F0BD032003B0F0BD002805D10022114681
:10687000104600F091FFF8816A467979A14800F04E
:10688000CBFD0028EED104231C223146684600F0DF
:10689000EDFD0028E6D19C4A1C21304600F07CFF2B
:1068A0009A49F8814218787900238100984842502B
:1068B00009180422684600F0D9FD0028D2D1787961
:1068C0006D1C401C787178788542BCDB0020C04389
:1068D0007881014686480160C16400214166F971F2
:1068E0003972084603B0F0BDF8B5814C606E0028DF
:1068F00001D00820F8BD1420694608807B486A460C
:106900007D494089AADF0028F4D120686822794BAC
:106910004243D2186946E06409882C3B61661746F9
:10692000DE699D695C694C3771C7186A5B6A1366DA
:106930005166D065774800F022FBF8BD6B480178BE
:10694000002901D10820704710B500214170017164
:106950004171C170817019214901694800F028FE18
:10696000002804D1FF214131664800F021FE10BD0E
:1069700010B50B46411C14D05C494978884210DAA6
:10698000002B0ED0682148435A4941184220405CF0
:10699000022806D042310722184601F01FFA0020D3
:1069A00010BD072010BDF1B55048C778002F41D069
:1069B00000240721384601F0BDFA00235648574A03
:1069C000002908DDE5002D18A6006D68641C5B1C1D
:1069D00095518B42F6DBB9422CDAE3001B18A50077
:1069E0005B685351641CE3001B18A5005B6853519E
:1069F000641CE3001B18A5005B685351641CE30092
:106A00001B18A5005B685351641CE3001B18A5000C
:106A10005B685351641CE3001B18A5005B6853516D
:106A2000641CE3001B18A5005B68641CC91D53515E
:106A3000B942D2DB2D488578002D42D000240721B1
:106A4000284601F077FA0020354A002909DD354B48
:106A5000E600F318A6005B68641C401C9351884252
:106A6000F5DBA9422DDA2F48E3001B18A6005B686E
:106A70009351641CE3001B18A6005B689351641CCF
:106A8000E3001B18A6005B689351641CE3001B180D
:106A9000A6005B689351641CE3001B18A6005B68AA
:106AA0009351641CE3001B18A6005B689351641C9F
:106AB000E3001B18A6005B68641CC91D9351A94222
:106AC000D2DB0098002D057101D0154900E00021AE
:106AD0000098002F01600098077301D00F4900E073
:106AE0000021009881600020F8BD0000CC2000202B
:106AF000142500207C25002064250020502500203E
:106B0000DC200020E4200020DA20002000002453B4
:106B1000E0280020602500208C280020EC240020A4
:106B2000D024002054280020100002D0FE4989689B
:106B300008477047F0B50446806899B0002839D0FE
:106B40005021684681800A21C180F8480090F849A8
:106B5000684600F0EFFB00282DD120206946888090
:106B6000F449684600F0E6FB002824D1F248A36807
:106B7000626821680364C26381636821EF4801F0A1
:106B8000D7F90020ED49C04308600146EC480026D3
:106B900041814670067146718671E348E94F8078FD
:106BA000002821D019214901E14800F001FD002809
:106BB00003D007E0072019B0F0BDFF214131DD48C7
:106BC00000F0F6FC0028F6D1DD4800214670324680
:106BD000C9433046682358433950C019761C426671
:106BE000C164072EF5DBCCE0D54C0B25207902AE35
:106BF000002805D100221146104600F0CDFDA081ED
:106C000016AA2179CA4800F007FC002819D10023F0
:106C1000042216A915A800F097FC002811D1159898
:106C2000C949020C8A4209D187B204234C2216A911
:106C3000304600F089FC002803D10BE0401C2ED028
:106C4000284605282BD00028B5D16078029E8642C0
:106C50000CDC0EE0BD4A4C21304600F09DFDA081C9
:106C6000B84203D12079401C2071EEE7284619B0C4
:106C7000F0BD682031464143B2484C22081807460F
:106C800002A9FDF781FA6078864205D10021796674
:106C9000491E401CF9646070C0B20728A6D3607812
:106CA0000026002854DD607902AF002805D10022BB
:106CB0001146104600F070FDE0810AAA61799D48F6
:106CC00000F0AAFB002819D1002304220AA909A870
:106CD00000F03AFC002811D109989B49020C8A4225
:106CE00009D185B204231C220AA9384600F02CFCE5
:106CF000002803D10BE0401C2AD00B20052827D008
:106D00000028B4D16078029981420CDC0EE0904AF0
:106D10001C21384600F040FDE081A84203D1607993
:106D2000401C6071EEE70B2019B0F0BD68225143A2
:106D3000844A761C891802AAACCA4C31ACC15C39B1
:106D4000089D079B069A4D660B66CA658642AADBBC
:106D500061780720431A002B11DD682041437948F0
:106D6000002508180146024664314C306C1E146040
:106D70000D6004606832683168305B1EF7D1FFF740
:106D8000AAFA6F4801210170002019B0F0BD6C4AC9
:106D90001378002B07D0002907D00B885278934234
:106DA00005D20C207047082070470E2070470A80DB
:106DB0000028FBD030B40021002A09DD614C682393
:106DC0004B431B194D00DB8F491C43539142F6DBAB
:106DD00030BC00207047F0B5594B83B019780029BA
:106DE0003CD05A780021002A3FD9564C68254D43A3
:106DF0002D19ED8F854234D148B2411C35D0C5B232
:106E0000521E954217DA68202F4647433E19311823
:106E100030466822FDF7B8F9E059401EE051F06CA9
:106E2000411C01D0401EF06445486D1C4078EDB215
:106E3000401E8542E7DB424D6821687848430019CF
:106E4000683801F075F868781921401E68704901AA
:106E5000374800F0ADFB00280AD00EE0082003B050
:106E6000F0BD491CC9B29142C0D3052003B0F0BDAA
:106E7000FF2141312F4800F09BFB0028F6D12871FB
:106E800068710646687800280CD930466821484366
:106E90000019FFF7E5F90028E8D1761C6878F6B20A
:106EA0008642F2D30026C0B200283CD96820704345
:106EB000071968794C370A2802D3042003B0F0BDC3
:106EC000002805D100221146104600F065FCE8813B
:106ED0006A466979174800F09FFA0028EED104232A
:106EE0001C223946684600F0C1FA0028E6D1184A4B
:106EF0001C21384600F050FC1649E8814218687998
:106F0000002381001448425009180422684600F00A
:106F1000ADFA0028D2D16879761C401C6871687877
:106F2000F6B28642C2D319E008250020296B010081
:106F3000DC200020E4200020D024002014250020A4
:106F4000CC2000207C25002024530000D8200020E5
:106F5000DA20002000002453E0280020FFF7BBF9CE
:106F6000002003B0F0BD23490A78002A05D08979B2
:106F7000C907C90F0170002070470820704730B55D
:106F80001C4C0546607983B00A2802D3042003B064
:106F900030BD002805D100221146104600F0FCFB50
:106FA000E0816A466179144800F036FA0028EED193
:106FB00004231C222946684600F058FA0028E6D12E
:106FC0000E4A1C21284600F0E7FB0D49E0814218DB
:106FD00060790C4980000A50411800230422684659
:106FE00000F044FA0028D2D16079401C6071002082
:106FF00003B030BDCC200020E4200020DA200020A7
:1070000000002453E0280020FFB581B00F46FD4D5D
:10701000049B03990646EA68194303208E46002A1A
:1070200001D0E96803E0002911D00121E960039A49
:10703000012492002407009207297BD20B007B4495
:107040001B79DB189F4476051F324F78860002219A
:10705000ECE7ED484169491C05D02169406989B2D6
:1070600000F068FF00E060692169401E89B2484372
:10707000216909048A0C216989B2794351DF00280A
:1070800058D1022155E0384650DF002852D10399EB
:10709000002901D003214CE00499002904D1317862
:1070A000042942D1072144E0042142E0D648416945
:1070B000491C05D02169406989B200F03BFF00E01E
:1070C00060692169401E89B241432069039A80B2F8
:1070D000784351DF00282DD104990029E4D131787B
:1070E000042925D021E0C8484169491C05D02169FF
:1070F000406989B200F01EFF00E060692169401E0E
:1071000089B248437188421800981018226992B2D7
:107110007A4352180099531801461846049A51DFD1
:10712000002807D13178042902D0052101E001E0CF
:107130000621E96005B0F0BD2069718880B278430E
:1071400080188A08316951DF0028F3D1714600297F
:10715000EED1A7E7AC484169491C05D021694069D7
:1071600089B200F0E7FE00E060692169401E89B243
:107170004843216989B200F0DDFE50DF0028D9D1F3
:107180000721E96005B0F0BDA0498A78012A7DD1C8
:10719000F8B500249B4A8C70D368082B07D00228CE
:1071A00017D0032802D10D2000F0DEFAF8BD022826
:1071B0000AD0147048780028F8D000F03AFA040099
:1071C000F4D0112C5ED101E0D460F3E700F0CCFAEA
:1071D000F8BD8E4814250178694308188949001DB7
:1071E0008A88521C95B28D800278022A05D1468881
:1071F000A902B14201D3012600E00026052A01D1EF
:10720000072B03D00021042A02D003E00121FAE772
:10721000072B03D00027042A02D007E00127FAE752
:107220004088AA02824201D3002B30D0002039438B
:10723000014331431CD0734D2046EC6000F094FABA
:10724000724814220178514309180C71CC800C61EA
:1072500002224C61CA600C81AC804178491E4170A9
:107260000178491CC9B201701E2901D31E39017071
:10727000664840780028ABD000F0DBF90400A7D0C6
:10728000112CA3D000F070FA20469FE701E0012006
:10729000CDE77047F8B500205A4C5C4DA080E06007
:1072A00028706870A8700146022314224A435219BC
:1072B0001071D0801061D3605061491C10811E296B
:1072C000F3D30020504F60807869514E401C05D0A8
:1072D000306981B2786900F02DFE00E07069316993
:1072E000C01E89B24843A06000204A49A0800860BF
:1072F0000881888148810861088388834883082041
:10730000E0607869401C05D0306981B2786900F08E
:1073100011FE00E070693169401E89B2484331694D
:1073200089B200F007FE50DF002802D10121A970C8
:107330002170F8BDF8B5044632480F4600780028A1
:107340001ED0002C1ED0002F1CD02068002819D081
:1073500001252D07A688286980B2864222D8102EE2
:1073600020D3E088009000281CD027484169491CA0
:107370000AD02969406989B200F0DCFD014604E0C9
:107380000820F8BD0E20F8BD69692869491E80B241
:107390001C4A4143009B906873431B18994201D3D8
:1073A000B10701D00720F8BD5188022919D0194B27
:1073B0000E013960F2187860506027689F51A388E9
:1073C0001381E3885381A388E48800266343761CF5
:1073D0002C69B6B2A4B29C4205D22C69A4B21B1B84
:1073E00002E00420F8BD00232C69A4B220182C6907
:1073F000A4B29C42EBD9034B491C986096815980FA
:107400000020F8BDEC20002000100010FC28002017
:1074100000000010582B002070B4DC4B1B78002BB0
:1074200019D000281AD0002A18D00368022B0FD2D6
:10743000D74C1E01A559002D0AD045683019048982
:10744000614369184589406865432818884208D80F
:1074500070BC0720704770BC0820704770BC0E20BD
:1074600070471360516070BC00207047F8B5C74C7E
:107470002478002C1DD000291DD000281BD00468C2
:10748000022C14D22501C24C6659002E0FD02D19A2
:107490006E892C896D68664376194568AE4206D9B7
:1074A000002A04D0944202D3D618A64205D9072058
:1074B000F8BD0820F8BD0E20F8BD0C461C43A407FB
:1074C00001D1AC0701D01020F8BD009313460A4645
:1074D0000146022000F021F9F8BDF8B5AB4C247844
:1074E000002C1DD000291DD000281BD00468022CC0
:1074F00014D22501A64C6659002E0FD02D196E8985
:107500002C896D68664376194568AE4206D9002A13
:1075100004D0944202D3D618A64205D90720F8BD5C
:107520000820F8BD0E20F8BD0C461C43A40701D16D
:10753000AC0701D01020F8BD009313460A4601465F
:10754000052000F0EAF8F8BD70B5904C2478002CC6
:107550001DD000291DD000281BD00C68022C14D28D
:107560008B4D24012E59002E0FD065196E892C8960
:107570006D686643496875198D4206D9002A04D0A2
:10758000944202D3D518A54205D9072070BD082022
:1075900070BD0E2070BD04461C43A40701D18C07AA
:1075A00001D0102070BDC91800F018FC002070BD7B
:1075B00038B5044675480D460078002816D0002CD2
:1075C00016D0206802281AD2714900010A58002AF0
:1075D00015D040184389018942684B4360689B1865
:1075E00083420CD9830705D0102038BD082038BD50
:1075F0000E2038BD801A00F09DFC002901D0072024
:1076000038BD0020024600902B462146042000F0A1
:1076100084F838BD5D490978002906D0002806D0D5
:107620005C494978016000207047082070470E20AF
:107630007047F8B5574914230A780F205A43541855
:10764000241D524922788F88E668022A24D0012519
:107650002D07042A33D0052A1DD1286981B230466E
:1076600000F068FC0146A38828699A1980B2484353
:10767000101A820860881818861928694B1C80B275
:107680005843801B83082046FFF7BEFC002802D128
:10769000404901228A70F8BDB80262882169121A35
:1076A0000918A3883018181801239B029A4202D2A5
:1076B000920851DFEAE7FF22013251DFE6E7A368D3
:1076C000334819010818018942894068B04203D142
:1076D00060885143814218D0032B16D0286981B2AB
:1076E000304600F027FC0146286980B24843301A32
:1076F000820828694B1C80B2584363889B19C01AC2
:1077000083082046FFF780FCC0E7286981B2304635
:1077100000F010FCC01950DFB8E7F8B51D4C069E0C
:1077200065781E2D1ED027787D19EDB21E2D01D350
:107730001E3DEDB214277D432D1928716A6108683A
:1077400049682961E860EB802E81A178002000293A
:1077500004D1FFF76EFF112800D100206178491C89
:107760006170F8BD0420F8BD38B5024609481423FD
:107770000178074C59430818C36801791B01E45884
:10778000C388009343690C30A04738BDEC2000202B
:10779000582B0020FC2800200346002A36D01088F1
:1077A000002932D05B1ECA070ED0020A0002024333
:1077B0005B1C187850400206120F424010035040E4
:1077C00082B21006C00C504049081ED0020A0002C6
:1077D000024358789B1C50400206120F424010038F
:1077E000504080B20206D20C4240100A12021043EE
:1077F0001A7842401006000F50400203424092B2F5
:107800001006C00C5040491EE0D170470048C7E741
:10781000FFFF0000F8B5744C6946607800F068FA24
:10782000002854D120780025002850D96F4F012618
:107830000C20616868434118087832463B688240F2
:1078400013421DD08B68002B1AD049780129E168BA
:107850008C4609D000293BD00146184601226346D8
:107860009847002820D12DE0002933D00146184642
:10787000002263469847002816D123E0984721E06C
:107880007B6813421ED08B68002B1BD049780129DE
:10789000E1688C460DD000291CD001461846002214
:1078A0006346984700280DD051A22821FCF7F4FC2C
:1078B00008E000290CD0014618460122634698478B
:1078C0000028F1D16D1C2078EDB28542B0D3F8BD0F
:1078D0000121D3E70021D1E770B5434D04460E46A0
:1078E0002869FEF751F9002808D140480660446035
:1078F00034432246A9682869FEF7DCF870BD052AE2
:1079000001D207207047F8B50C46374948600C7023
:10791000CB608A60621E0021D2B2002C13D0404D91
:1079200001240C2353431B181E785F68B600BF0068
:10793000761937601E782346B34019431346521E0A
:10794000D2B2002BEDD1374B0A46374800F01FF971
:10795000002804D1354A00213548FEF782F8F8BDE9
:1079600021484168002901D10820704710B54078AE
:1079700000F048F910BD10B51B4C6068002808D015
:10798000607800F084F9002802D12069FEF7FCF845
:1079900010BD082010BDF8B505460C202A4642430C
:1079A00011480C464168561800290CD069464078A9
:1079B00000F09EF9002807D172780121002A04D036
:1079C000012A07D00DE00820F8BD009AEA40D2074E
:1079D00006D103E0009AEA40D20701D0217000E00E
:1079E00020700020F8BD0000FC20002010210020A5
:1079F0002E2E5C2E2E5C2E2E5C2E2E5C2E2E5C539C
:107A00006F757263655C6170705F636F6D6D6F6ED3
:107A10005C6170705F627574746F6E2E630000003D
:107A200000070050D9780100FD20002015780100E2
:107A30000C210020F0B5B94883B001690091B84A23
:107A40000021D1630191B7494A78002A6FD9019882
:107A500014214843B349019C4A688968821801206F
:107A60000346A3400B425AD0D1680327CB43009969
:107A70004B4011680B4000219C463F0405468D4059
:107A80001C462C420FD0D66834462C4251D03C467E
:107A9000AE43D660A44D8E0075192E68BE432E608D
:107AA0002E6826432E60491C2029E7D39B4909698B
:107AB000009B594025D00B430093D168CC431168FB
:107AC0005C400C40002103468B4025461D4212D0ED
:107AD000D5682E461E4230D0032636049D43D5601D
:107AE000914B8D00ED182F6803231B049F432F60DB
:107AF0002B6833432B60491C2029E4D36046204384
:107B00008446009B604691689843014064465068F3
:107B10002340184003460B4301D012699047019857
:107B20008049401CC0B20190497888428FD303B08D
:107B3000F0BD012464042E43ABE7012676041D4307
:107B4000CDE7002901D08A0701D00720704710B582
:107B5000744A0B46516010700021517091601421DD
:107B60004143184600F0E4F900207049C0438860A2
:107B70006F48402101606F484268FF231B049A430D
:107B80000B04D21842606C480160002010BDF0B4B4
:107B9000844664484568002D08D0002B09D04478FD
:107BA0000678B44208D3F0BC04207047F0BC08202B
:107BB0007047F0BC072070470F46142617436643F2
:107BC000AF5176193361B260716061460C70611C0F
:107BD0004170142100204C430122534B03273F04E2
:107BE0002E59114681400E4206D08100C9180E68F8
:107BF000BE430E600E680E60401C2028F0D3F0BC1F
:107C000000207047F0B4474C6268002A05D06178C4
:107C1000884205D3F0BC07207047F0BC08207047AD
:107C20003F490025CD633D4909698C46A16800297B
:107C300003D101233D4EDB077360012686400E43CE
:107C4000142148438118A660CD60032500212D042E
:107C50008618012413588C40234212D063462342D5
:107C600001D02B4604E00123F7685B042743F7604B
:107C70002D4C8F003C192768AF43276027681F43AE
:107C80002760491C2029E4D3F0BC00207047F0B4E1
:107C9000244A5568002D05D05178884205D3F0BCA0
:107CA00007207047F0BC082070471422002142438F
:107CB000012403273F04AE5823468B401E4207D0C1
:107CC000194E8B009B191E68BE431E601E681E6005
:107CD000491C2029EFD3134984408868A043886059
:107CE00003D101201149C0078860F0BC0020704713
:107CF0000C4B5A68002A04D05B78984203D30720C3
:107D0000704708207047142358438018034A1269AB
:107D10000068024000200A60704700000005005023
:107D2000406100401821002000070050006300401F
:107D300080E200E000E400E000E100E0034610B56E
:107D40000B439B070FD1042A0DD308C810C9121F7B
:107D5000A342F8D018BA21BA884201D9012010BD37
:107D60000020C04310BD002A03D0D30703D0521C0B
:107D700007E0002010BD03780C78401C491C1B1B39
:107D800007D103780C78401C491C1B1B01D1921EA3
:107D9000F1D1184610BD000030B5441C03E0017855
:107DA000401C00290DD08107F9D10B4BDD0104C81F
:107DB000D11A91432940FAD0001B0A0603D0C01EF5
:107DC00030BD001B30BD0A0401D0801E30BD090249
:107DD000FCD0401E30BD000001010101F8B5042AAD
:107DE0002CD3830712D00B78491C0370401C521E01
:107DF00083070BD00B78491C0370401C521E83076D
:107E000004D00B78491C0370401C521E8B079B0F3B
:107E100005D0C91ADF002023DE1B08C90AE0FCF7E1
:107E2000B3F9F8BD1D4608C9FD401C46B4402C43BB
:107E300010C0121F042AF5D2F308C91A521EF0D43A
:107E40000B78491C0370401C521EEAD40B78491C65
:107E50000370401C521EE4D409780170F8BD431A27
:107E600070B593421BD28918801804E0491E521E37
:107E70000B78401E03709307F8D106E010390B46CB
:107E80001038103A78CB78C01038102AF6D203E0B8
:107E9000001F091F0B680360121FF9D570BDFCF7A6
:107EA00073F970BDF8B5064614460843800707D03D
:107EB000751AA54219D20819102D13D2311907E0ED
:107EC0003046FFF7CCFFF8BD401E491E02780A700D
:107ED000641EF9D2F8BD471B2A463946FFF77EFFDC
:107EE000641B3846A542F6D3011B22463046FFF7F5
:107EF00075FFF8BD01E004C0091F0429FBD28B0700
:107F000001D50280801CC90700D00270704700298B
:107F10000BD0C30702D00270401C491E022904D3B3
:107F2000830702D50280801C891EE3E70022EEE76A
:107F30000022DFE7002203098B4273D3030A8B423E
:107F400058D3030B8B423CD3030C8B4221D312E05A
:107F500003460B437FD4002243088B4274D30309AA
:107F60008B425FD3030A8B4244D3030B8B4228D34B
:107F7000030C8B420DD3FF22090212BA030C8B4271
:107F800002D31212090265D0030B8B4219D300E011
:107F9000090AC30B8B4201D3CB03C01A5241830B96
:107FA0008B4201D38B03C01A5241430B8B4201D346
:107FB0004B03C01A5241030B8B4201D30B03C01A6F
:107FC0005241C30A8B4201D3CB02C01A5241830AE9
:107FD0008B4201D38B02C01A5241430A8B4201D318
:107FE0004B02C01A5241030A8B4201D30B02C01A42
:107FF0005241CDD2C3098B4201D3CB01C01A5241A9
:1080000083098B4201D38B01C01A524143098B4231
:1080100001D34B01C01A524103098B4201D30B011A
:10802000C01A5241C3088B4201D3CB00C01A52413F
:1080300083088B4201D38B00C01A524143088B4204
:1080400001D34B00C01A5241411A00D2014652419D
:10805000104670475DE0CA0F00D04942031000D3BC
:108060004042534000229C4603098B422DD3030A11
:108070008B4212D3FC22890112BA030A8B420CD321
:10808000890192118B4208D3890192118B4204D34A
:1080900089013AD0921100E08909C3098B4201D3CA
:1080A000CB01C01A524183098B4201D38B01C01A04
:1080B000524143098B4201D34B01C01A524103097B
:1080C0008B4201D30B01C01A5241C3088B4201D32A
:1080D000CB00C01A524183088B4201D38B00C01AD7
:1080E0005241D9D243088B4201D34B00C01A5241AE
:1080F000411A00D20146634652415B10104601D33B
:108100004042002B00D54942704763465B1000D3C4
:10811000404201B50020C046C04602BD70477047CE
:108120007047754600F022F8AE4605006946534692
:10813000C008C000854618B020B5FCF751F860BCF7
:1081400000274908B6460026C0C5C0C5C0C5C0C581
:10815000C0C5C0C5C0C5C0C5403D49008D467047BB
:108160000446C046C0462046FBF7F7FF004870476C
:10817000782B002001491820ABBEFEE72600020044
:10818000704700000D1801000F1801000A180100C7
:10819000B081010000200020240100000441010002
:1081A000D482010024210020B41A000020410100E3
:1081B0000024F4000000FFFF0000000000000000A9
:1081C000000000000000000000000000100000009F
:1081D0000300000013430100110000000300000031
:1081E0001343010000000000000000000000000038
:1081F000000000000000000000000000000000007F
:10820000000000000000000000000000000000006E
:10821000000000000000000000000000000000005E
:10822000000000000000000000000000000000004E
:10823000000000000000000000000000000000003E
:10824000000000000000000000000000000000002E
:10825000000000000000000000000000000000001E
:10826000000000000000000000000000000000000E
:1082700000000000000000000000000000000000FE
:1082800000000000000000000000000000000000EE
:1082900000000000000000000000000000000000DE
:1082A00000000000000000000000000000000000CE
:1082B00000000000000000000000000000000000BE
:1082C00000000000000000000000000000000000AE
:0482D00000000000AA
:04000005000140C1F5
:00000001FF
